{
  "address": "0x59f1F1e6ca5C3ddB64E8dbBEa12f31D9236d7e64",
  "abi": [
    {
      "inputs": [
        {
          "internalType": "address",
          "name": "contractAddress",
          "type": "address"
        }
      ],
      "stateMutability": "nonpayable",
      "type": "constructor"
    },
    {
      "anonymous": false,
      "inputs": [
        {
          "indexed": false,
          "internalType": "uint256",
          "name": "jobID",
          "type": "uint256"
        },
        {
          "indexed": false,
          "internalType": "string",
          "name": "cid",
          "type": "string"
        }
      ],
      "name": "ReceivedJobResults",
      "type": "event"
    },
    {
      "inputs": [],
      "name": "_contractAddress",
      "outputs": [
        {
          "internalType": "address",
          "name": "",
          "type": "address"
        }
      ],
      "stateMutability": "view",
      "type": "function"
    },
    {
      "inputs": [],
      "name": "fetchAllResults",
      "outputs": [
        {
          "components": [
            {
              "internalType": "uint256",
              "name": "jobID",
              "type": "uint256"
            },
            {
              "internalType": "string",
              "name": "cid",
              "type": "string"
            },
            {
              "internalType": "string",
              "name": "httpString",
              "type": "string"
            }
          ],
          "internalType": "struct ExampleClient.Result[]",
          "name": "",
          "type": "tuple[]"
        }
      ],
      "stateMutability": "view",
      "type": "function"
    },
    {
      "inputs": [],
      "name": "lilypadFee",
      "outputs": [
        {
          "internalType": "uint256",
          "name": "",
          "type": "uint256"
        }
      ],
      "stateMutability": "view",
      "type": "function"
    },
    {
      "inputs": [
        {
          "internalType": "uint256",
          "name": "_jobID",
          "type": "uint256"
        },
        {
          "internalType": "string",
          "name": "_cid",
          "type": "string"
        }
      ],
      "name": "receiveJobResults",
      "outputs": [],
      "stateMutability": "nonpayable",
      "type": "function"
    },
    {
      "inputs": [
        {
          "internalType": "uint256",
          "name": "",
          "type": "uint256"
        }
      ],
      "name": "results",
      "outputs": [
        {
          "internalType": "uint256",
          "name": "jobID",
          "type": "uint256"
        },
        {
          "internalType": "string",
          "name": "cid",
          "type": "string"
        },
        {
          "internalType": "string",
          "name": "httpString",
          "type": "string"
        }
      ],
      "stateMutability": "view",
      "type": "function"
    },
    {
      "inputs": [
        {
          "internalType": "string",
          "name": "sayWhat",
          "type": "string"
        }
      ],
      "name": "runCowsay",
      "outputs": [
        {
          "internalType": "uint256",
          "name": "",
          "type": "uint256"
        }
      ],
      "stateMutability": "payable",
      "type": "function"
    },
    {
      "inputs": [
        {
          "internalType": "string",
          "name": "name",
          "type": "string"
        },
        {
          "internalType": "string",
          "name": "params",
          "type": "string"
        }
      ],
      "name": "runModule",
      "outputs": [
        {
          "internalType": "uint256",
          "name": "",
          "type": "uint256"
        }
      ],
      "stateMutability": "payable",
      "type": "function"
    },
    {
      "inputs": [
        {
          "internalType": "string",
          "name": "prompt",
          "type": "string"
        }
      ],
      "name": "runSDXL",
      "outputs": [
        {
          "internalType": "uint256",
          "name": "",
          "type": "uint256"
        }
      ],
      "stateMutability": "payable",
      "type": "function"
    },
    {
      "inputs": [
        {
          "internalType": "string",
          "name": "prompt",
          "type": "string"
        }
      ],
      "name": "runStablediffusion",
      "outputs": [
        {
          "internalType": "uint256",
          "name": "",
          "type": "uint256"
        }
      ],
      "stateMutability": "payable",
      "type": "function"
    },
    {
      "inputs": [
        {
          "internalType": "uint256",
          "name": "_fee",
          "type": "uint256"
        }
      ],
      "name": "setLilypadFee",
      "outputs": [],
      "stateMutability": "nonpayable",
      "type": "function"
    }
  ],
  "bytecode": "0x6080604052600280553480156200001557600080fd5b50604051620018253803806200182583398181016040528101906200003b91906200019f565b600073ffffffffffffffffffffffffffffffffffffffff168173ffffffffffffffffffffffffffffffffffffffff1603620000ad576040517f08c379a0000000000000000000000000000000000000000000000000000000008152600401620000a49062000258565b60405180910390fd5b806000806101000a81548173ffffffffffffffffffffffffffffffffffffffff021916908373ffffffffffffffffffffffffffffffffffffffff16021790555080600160006101000a81548173ffffffffffffffffffffffffffffffffffffffff021916908373ffffffffffffffffffffffffffffffffffffffff160217905550506200027a565b600080fd5b600073ffffffffffffffffffffffffffffffffffffffff82169050919050565b600062000167826200013a565b9050919050565b62000179816200015a565b81146200018557600080fd5b50565b60008151905062000199816200016e565b92915050565b600060208284031215620001b857620001b762000135565b5b6000620001c88482850162000188565b91505092915050565b600082825260208201905092915050565b7f4e616976654578616d706c6573436c69656e743a20636f6e747261637420636160008201527f6e6e6f74206265207a65726f2061646472657373000000000000000000000000602082015250565b600062000240603483620001d1565b91506200024d82620001e2565b604082019050919050565b60006020820190508181036000830152620002738162000231565b9050919050565b61159b806200028a6000396000f3fe6080604052600436106100915760003560e01c8063bd37d3a511610059578063bd37d3a514610189578063cabc00d1146101b2578063e1dc7a20146101e2578063e7ec0c4a1461020d578063ef2e09111461023d57610091565b80631b0c27da1461009657806337988767146100d557806347906229146101005780634c8f4468146101305780637a49436214610160575b600080fd5b3480156100a257600080fd5b506100bd60048036038101906100b89190610a49565b610268565b6040516100cc93929190610b15565b60405180910390f35b3480156100e157600080fd5b506100ea6103b2565b6040516100f79190610b9b565b60405180910390f35b61011a60048036038101906101159190610ceb565b6103d6565b6040516101279190610d63565b60405180910390f35b61014a60048036038101906101459190610d7e565b6104f9565b6040516101579190610d63565b60405180910390f35b34801561016c57600080fd5b5061018760048036038101906101829190610e27565b6105b9565b005b34801561019557600080fd5b506101b060048036038101906101ab9190610a49565b6106e2565b005b6101cc60048036038101906101c79190610d7e565b6106ec565b6040516101d99190610d63565b60405180910390f35b3480156101ee57600080fd5b506101f76107ac565b6040516102049190610d63565b60405180910390f35b61022760048036038101906102229190610d7e565b6107b2565b6040516102349190610d63565b60405180910390f35b34801561024957600080fd5b50610252610872565b60405161025f9190610ff9565b60405180910390f35b6003818154811061027857600080fd5b90600052602060002090600302016000915090508060000154908060010180546102a19061104a565b80601f01602080910402602001604051908101604052809291908181526020018280546102cd9061104a565b801561031a5780601f106102ef5761010080835404028352916020019161031a565b820191906000526020600020905b8154815290600101906020018083116102fd57829003601f168201915b50505050509080600201805461032f9061104a565b80601f016020809104026020016040519081016040528092919081815260200182805461035b9061104a565b80156103a85780601f1061037d576101008083540402835291602001916103a8565b820191906000526020600020905b81548152906001019060200180831161038b57829003601f168201915b5050505050905083565b60008054906101000a900473ffffffffffffffffffffffffffffffffffffffff1681565b6000670de0b6b3a76400006002546103ee91906110aa565b34146040516020016103ff90611143565b6040516020818303038152906040529061044f576040517f08c379a00000000000000000000000000000000000000000000000000000000081526004016104469190611158565b60405180910390fd5b50600160009054906101000a900473ffffffffffffffffffffffffffffffffffffffff1673ffffffffffffffffffffffffffffffffffffffff16637ce7b1793485856040518463ffffffff1660e01b81526004016104ae92919061117a565b60206040518083038185885af11580156104cc573d6000803e3d6000fd5b50505050506040513d601f19601f820116820180604052508101906104f191906111c6565b905092915050565b6000670de0b6b3a764000060025461051191906110aa565b341460405160200161052290611143565b60405160208183030381529060405290610572576040517f08c379a00000000000000000000000000000000000000000000000000000000081526004016105699190611158565b60405180910390fd5b506105b26040518060400160405280601281526020017f7364786c3a76302e392d6c696c79706164310000000000000000000000000000815250836103d6565b9050919050565b6000604051806060016040528085815260200184848080601f016020809104026020016040519081016040528093929190818152602001838380828437600081840152601f19601f8201169050808301925050505050505081526020018484604051602001610629929190611264565b604051602081830303815290604052815250905060038190806001815401808255809150506001900390600052602060002090600302016000909190919091506000820151816000015560208201518160010190816106889190611434565b50604082015181600201908161069e9190611434565b5050507f22a1da116916c27b56df667a04ad3d734585a27bad5e29cc1e4aeef61f6f1ed38484846040516106d493929190611533565b60405180910390a150505050565b8060028190555050565b6000670de0b6b3a764000060025461070491906110aa565b341460405160200161071590611143565b60405160208183030381529060405290610765576040517f08c379a000000000000000000000000000000000000000000000000000000000815260040161075c9190611158565b60405180910390fd5b506107a56040518060400160405280600d81526020017f636f777361793a76302e302e3100000000000000000000000000000000000000815250836103d6565b9050919050565b60025481565b6000670de0b6b3a76400006002546107ca91906110aa565b34146040516020016107db90611143565b6040516020818303038152906040529061082b576040517f08c379a00000000000000000000000000000000000000000000000000000000081526004016108229190611158565b60405180910390fd5b5061086b6040518060400160405280601781526020017f737461626c655f646966667573696f6e3a76302e302e31000000000000000000815250836103d6565b9050919050565b60606003805480602002602001604051908101604052809291908181526020016000905b828210156109f65783829060005260206000209060030201604051806060016040529081600082015481526020016001820180546108d39061104a565b80601f01602080910402602001604051908101604052809291908181526020018280546108ff9061104a565b801561094c5780601f106109215761010080835404028352916020019161094c565b820191906000526020600020905b81548152906001019060200180831161092f57829003601f168201915b505050505081526020016002820180546109659061104a565b80601f01602080910402602001604051908101604052809291908181526020018280546109919061104a565b80156109de5780601f106109b3576101008083540402835291602001916109de565b820191906000526020600020905b8154815290600101906020018083116109c157829003601f168201915b50505050508152505081526020019060010190610896565b50505050905090565b6000604051905090565b600080fd5b600080fd5b6000819050919050565b610a2681610a13565b8114610a3157600080fd5b50565b600081359050610a4381610a1d565b92915050565b600060208284031215610a5f57610a5e610a09565b5b6000610a6d84828501610a34565b91505092915050565b610a7f81610a13565b82525050565b600081519050919050565b600082825260208201905092915050565b60005b83811015610abf578082015181840152602081019050610aa4565b60008484015250505050565b6000601f19601f8301169050919050565b6000610ae782610a85565b610af18185610a90565b9350610b01818560208601610aa1565b610b0a81610acb565b840191505092915050565b6000606082019050610b2a6000830186610a76565b8181036020830152610b3c8185610adc565b90508181036040830152610b508184610adc565b9050949350505050565b600073ffffffffffffffffffffffffffffffffffffffff82169050919050565b6000610b8582610b5a565b9050919050565b610b9581610b7a565b82525050565b6000602082019050610bb06000830184610b8c565b92915050565b600080fd5b600080fd5b7f4e487b7100000000000000000000000000000000000000000000000000000000600052604160045260246000fd5b610bf882610acb565b810181811067ffffffffffffffff82111715610c1757610c16610bc0565b5b80604052505050565b6000610c2a6109ff565b9050610c368282610bef565b919050565b600067ffffffffffffffff821115610c5657610c55610bc0565b5b610c5f82610acb565b9050602081019050919050565b82818337600083830152505050565b6000610c8e610c8984610c3b565b610c20565b905082815260208101848484011115610caa57610ca9610bbb565b5b610cb5848285610c6c565b509392505050565b600082601f830112610cd257610cd1610bb6565b5b8135610ce2848260208601610c7b565b91505092915050565b60008060408385031215610d0257610d01610a09565b5b600083013567ffffffffffffffff811115610d2057610d1f610a0e565b5b610d2c85828601610cbd565b925050602083013567ffffffffffffffff811115610d4d57610d4c610a0e565b5b610d5985828601610cbd565b9150509250929050565b6000602082019050610d786000830184610a76565b92915050565b600060208284031215610d9457610d93610a09565b5b600082013567ffffffffffffffff811115610db257610db1610a0e565b5b610dbe84828501610cbd565b91505092915050565b600080fd5b600080fd5b60008083601f840112610de757610de6610bb6565b5b8235905067ffffffffffffffff811115610e0457610e03610dc7565b5b602083019150836001820283011115610e2057610e1f610dcc565b5b9250929050565b600080600060408486031215610e4057610e3f610a09565b5b6000610e4e86828701610a34565b935050602084013567ffffffffffffffff811115610e6f57610e6e610a0e565b5b610e7b86828701610dd1565b92509250509250925092565b600081519050919050565b600082825260208201905092915050565b6000819050602082019050919050565b610ebc81610a13565b82525050565b600082825260208201905092915050565b6000610ede82610a85565b610ee88185610ec2565b9350610ef8818560208601610aa1565b610f0181610acb565b840191505092915050565b6000606083016000830151610f246000860182610eb3565b5060208301518482036020860152610f3c8282610ed3565b91505060408301518482036040860152610f568282610ed3565b9150508091505092915050565b6000610f6f8383610f0c565b905092915050565b6000602082019050919050565b6000610f8f82610e87565b610f998185610e92565b935083602082028501610fab85610ea3565b8060005b85811015610fe75784840389528151610fc88582610f63565b9450610fd383610f77565b925060208a01995050600181019050610faf565b50829750879550505050505092915050565b600060208201905081810360008301526110138184610f84565b905092915050565b7f4e487b7100000000000000000000000000000000000000000000000000000000600052602260045260246000fd5b6000600282049050600182168061106257607f821691505b6020821081036110755761107461101b565b5b50919050565b7f4e487b7100000000000000000000000000000000000000000000000000000000600052601160045260246000fd5b60006110b582610a13565b91506110c083610a13565b92508282026110ce81610a13565b915082820484148315176110e5576110e461107b565b5b5092915050565b600081905092915050565b7f5061796d656e74206f6620322045746865722069732072657175697265640000600082015250565b600061112d601e836110ec565b9150611138826110f7565b601e82019050919050565b600061114e82611120565b9150819050919050565b600060208201905081810360008301526111728184610adc565b905092915050565b600060408201905081810360008301526111948185610adc565b905081810360208301526111a88184610adc565b90509392505050565b6000815190506111c081610a1d565b92915050565b6000602082840312156111dc576111db610a09565b5b60006111ea848285016111b1565b91505092915050565b7f68747470733a2f2f697066732e696f2f697066732f0000000000000000000000600082015250565b60006112296015836110ec565b9150611234826111f3565b601582019050919050565b600061124b83856110ec565b9350611258838584610c6c565b82840190509392505050565b600061126f8261121c565b915061127c82848661123f565b91508190509392505050565b60008190508160005260206000209050919050565b60006020601f8301049050919050565b600082821b905092915050565b6000600883026112ea7fffffffffffffffffffffffffffffffffffffffffffffffffffffffffffffffff826112ad565b6112f486836112ad565b95508019841693508086168417925050509392505050565b6000819050919050565b600061133161132c61132784610a13565b61130c565b610a13565b9050919050565b6000819050919050565b61134b83611316565b61135f61135782611338565b8484546112ba565b825550505050565b600090565b611374611367565b61137f818484611342565b505050565b5b818110156113a35761139860008261136c565b600181019050611385565b5050565b601f8211156113e8576113b981611288565b6113c28461129d565b810160208510156113d1578190505b6113e56113dd8561129d565b830182611384565b50505b505050565b600082821c905092915050565b600061140b600019846008026113ed565b1980831691505092915050565b600061142483836113fa565b9150826002028217905092915050565b61143d82610a85565b67ffffffffffffffff81111561145657611455610bc0565b5b611460825461104a565b61146b8282856113a7565b600060209050601f83116001811461149e576000841561148c578287015190505b6114968582611418565b8655506114fe565b601f1984166114ac86611288565b60005b828110156114d4578489015182556001820191506020850194506020810190506114af565b868310156114f157848901516114ed601f8916826113fa565b8355505b6001600288020188555050505b505050505050565b60006115128385610a90565b935061151f838584610c6c565b61152883610acb565b840190509392505050565b60006040820190506115486000830186610a76565b818103602083015261155b818486611506565b905094935050505056fea2646970667358221220b54e5c1f3b6b61986572c44c35332b4f3a38c7c50b40395bfb8c7976110962d164736f6c63430008130033",
  "linkReferences": {},
  "deployedLinkReferences": {}
}