{
  "_format": "hh-sol-artifact-1",
  "contractName": "LilypadClient",
  "sourceName": "contracts/LilypadClient/LilypadClient.sol",
  "address": "0x780B0Cb2Bb975C8303E76b066c876588a5e5a6B3",
  "abi": [
    {
      "inputs": [
        {
          "internalType": "address",
          "name": "_jobManagerAddress",
          "type": "address"
        }
      ],
      "stateMutability": "nonpayable",
      "type": "constructor"
    },
    {
      "anonymous": false,
      "inputs": [
        {
          "indexed": true,
          "internalType": "uint256",
          "name": "id",
          "type": "uint256"
        },
        {
          "indexed": false,
          "internalType": "string",
          "name": "dealId",
          "type": "string"
        },
        {
          "indexed": false,
          "internalType": "string",
          "name": "dataId",
          "type": "string"
        }
      ],
      "name": "JobCompleted",
      "type": "event"
    },
    {
      "anonymous": false,
      "inputs": [
        {
          "indexed": true,
          "internalType": "uint256",
          "name": "id",
          "type": "uint256"
        },
        {
          "indexed": false,
          "internalType": "string",
          "name": "message",
          "type": "string"
        }
      ],
      "name": "JobCreated",
      "type": "event"
    },
    {
      "inputs": [
        {
          "internalType": "uint256",
          "name": "_jobID",
          "type": "uint256"
        }
      ],
      "name": "getJobResult",
      "outputs": [
        {
          "internalType": "string",
          "name": "",
          "type": "string"
        }
      ],
      "stateMutability": "view",
      "type": "function"
    },
    {
      "inputs": [
        {
          "internalType": "uint256",
          "name": "",
          "type": "uint256"
        }
      ],
      "name": "jobResults",
      "outputs": [
        {
          "internalType": "string",
          "name": "",
          "type": "string"
        }
      ],
      "stateMutability": "view",
      "type": "function"
    },
    {
      "inputs": [
        {
          "internalType": "string",
          "name": "message",
          "type": "string"
        }
      ],
      "name": "runCowsay",
      "outputs": [
        {
          "internalType": "uint256",
          "name": "id",
          "type": "uint256"
        }
      ],
      "stateMutability": "nonpayable",
      "type": "function"
    },
    {
      "inputs": [
        {
          "internalType": "uint256",
          "name": "id",
          "type": "uint256"
        },
        {
          "internalType": "string",
          "name": "dealId",
          "type": "string"
        },
        {
          "internalType": "string",
          "name": "dataId",
          "type": "string"
        }
      ],
      "name": "submitResults",
      "outputs": [],
      "stateMutability": "nonpayable",
      "type": "function"
    }
  ],
  "bytecode": "0x608060405234801561001057600080fd5b5060405161093b38038061093b83398101604081905261002f916100b8565b6001600160a01b0381166100895760405162461bcd60e51b815260206004820152601360248201527f4a6f62206d616e61676572206164647265737300000000000000000000000000604482015260640160405180910390fd5b600080546001600160a01b039092166001600160a01b03199283168117909155600180549092161790556100e8565b6000602082840312156100ca57600080fd5b81516001600160a01b03811681146100e157600080fd5b9392505050565b610844806100f76000396000f3fe608060405234801561001057600080fd5b506004361061004c5760003560e01c80633b89dcab146100515780636c0f1f581461007a578063a3d606451461008f578063cabc00d1146100a2575b600080fd5b61006461005f3660046103a1565b6100c3565b604051610071919061040a565b60405180910390f35b61008d6100883660046104c7565b610165565b005b61006461009d3660046103a1565b6101bd565b6100b56100b0366004610534565b610257565b604051908152602001610071565b60008181526002602052604090208054606091906100e090610571565b80601f016020809104026020016040519081016040528092919081815260200182805461010c90610571565b80156101595780601f1061012e57610100808354040283529160200191610159565b820191906000526020600020905b81548152906001019060200180831161013c57829003601f168201915b50505050509050919050565b600083815260026020526040902061017d82826105fa565b50827f3849c58b4b39b379bddc5973e71a10ded174f54140916d81986c7eec092e5c4283836040516101b09291906106ba565b60405180910390a2505050565b600260205260009081526040902080546101d690610571565b80601f016020809104026020016040519081016040528092919081815260200182805461020290610571565b801561024f5780601f106102245761010080835404028352916020019161024f565b820191906000526020600020905b81548152906001019060200180831161023257829003601f168201915b505050505081565b604080516001808252818301909252600091829190816020015b60608152602001906001900390816102715790505090508260405160200161029991906106e8565b604051602081830303815290604052816000815181106102bb576102bb61072d565b60209081029190910101526001546040517fc75555fa00000000000000000000000000000000000000000000000000000000815273ffffffffffffffffffffffffffffffffffffffff9091169063c75555fa9061031e9084903390600401610743565b6020604051808303816000875af115801561033d573d6000803e3d6000fd5b505050506040513d601f19601f8201168201806040525081019061036191906107f5565b9150817fb63f0fdfb200b05c8b95fb4dcf8f8abd30f0b6884d532792e705afab4f37380a84604051610393919061040a565b60405180910390a250919050565b6000602082840312156103b357600080fd5b5035919050565b60005b838110156103d55781810151838201526020016103bd565b50506000910152565b600081518084526103f68160208601602086016103ba565b601f01601f19169290920160200192915050565b60208152600061041d60208301846103de565b9392505050565b634e487b7160e01b600052604160045260246000fd5b600082601f83011261044b57600080fd5b813567ffffffffffffffff8082111561046657610466610424565b604051601f8301601f19908116603f0116810190828211818310171561048e5761048e610424565b816040528381528660208588010111156104a757600080fd5b836020870160208301376000602085830101528094505050505092915050565b6000806000606084860312156104dc57600080fd5b83359250602084013567ffffffffffffffff808211156104fb57600080fd5b6105078783880161043a565b9350604086013591508082111561051d57600080fd5b5061052a8682870161043a565b9150509250925092565b60006020828403121561054657600080fd5b813567ffffffffffffffff81111561055d57600080fd5b6105698482850161043a565b949350505050565b600181811c9082168061058557607f821691505b6020821081036105a557634e487b7160e01b600052602260045260246000fd5b50919050565b601f8211156105f557600081815260208120601f850160051c810160208610156105d25750805b601f850160051c820191505b818110156105f1578281556001016105de565b5050505b505050565b815167ffffffffffffffff81111561061457610614610424565b610628816106228454610571565b846105ab565b602080601f83116001811461065d57600084156106455750858301515b600019600386901b1c1916600185901b1785556105f1565b600085815260208120601f198616915b8281101561068c5788860151825594840194600190910190840161066d565b50858210156106aa5787850151600019600388901b60f8161c191681555b5050505050600190811b01905550565b6040815260006106cd60408301856103de565b82810360208401526106df81856103de565b95945050505050565b7f4d6573736167653d0000000000000000000000000000000000000000000000008152600082516107208160088501602087016103ba565b9190910160080192915050565b634e487b7160e01b600052603260045260246000fd5b60608152600d60608201527f636f777361793a76302e302e34000000000000000000000000000000000000006080820152600060a08201602060a08185015281865180845260c08601915060c08160051b870101935082880160005b828110156107cd5760bf198887030184526107bb8683516103de565b9550928401929084019060010161079f565b5050505073ffffffffffffffffffffffffffffffffffffffff8516604085015250905061041d565b60006020828403121561080757600080fd5b505191905056fea2646970667358221220dc210b952a009e017c8fc29f5993a10b8256fa2cb43548cdd646358b9ec614f264736f6c63430008140033",
  "linkReferences": {},
  "deployedLinkReferences": {}
}